S00B00004953552E7372656328
S113000045C000004BC0000049C0000047C00000CC
S113001045C0000043C0000041C000003FC00000D4
S11300203DC000003BC0000039C0000037C00000E4
S113003035C0000033C0000031C000002FC00000F4
S11300402DC000002BC0000029C0000027C0000004
S113005025C0000023C0000021C000001FC0000014
S11300601DC000001BC0000019C0000017C0000024
S113007015C0000013C0000011C000000FC0000034
S11300800DC000000BC0000009C0000011241FBEF9
S1130090CFEFD0E1DEBFCDBFAED0B9C0B1CF8FEFCF
S11300A084BB15BA0895F894FADF42D07894089581
S11300B0AB9A95B39F70807F892B85BB83EC99E0C5
S11300C00197F1F700C00000AB9883EC99E0019729
S11300D0F1F700C000000895AB9A25B32F7030E10A
S11300E0839FC0011124822B85BB83EC99E0019787
S11300F0F1F700C00000AB9883EC99E00197F1F7A9
S113010000C000000895CF93C82FAA9883EC99E00B
S11301100197F1F700C000008C2FCADF8C2FDCDFC1
S113012083EC99E00197F1F700C00000CF910895A6
S11301302FE986E891E0215080409040E1F700C02B
S1130140000080E3E0DF88E2B3DF88E0DCDF81E009
S1130150DADF86E0D8DF8CE0D6CF0895CF93C82FBE
S1130160AA9A83EC99E00197F1F700C000008C2F64
S11301709FDF8C2FB1DFCF9108950F931F93CF93FF
S1130180DF938C01C1E0D0E003C021960F5F1F4FC5
S1130190C930D10531F480E0B6DFF8018081DEDFBB
S11301A0F4CFF8018081DADFC031D10574F3DF9137
S11301B0CF911F910F910895CF93DF93CDB7DEB701
S11301C060970FB6F894DEBF0FBECDBF81E09BDF12
S11301D0FE01319680E381938F5F8034E1F7CE0195
S11301E00196CBDF60960FB6F894DEBF0FBECDBF8D
S11301F0DF91CF91089557DFDFDF2FE38DE093E0A8
S1130200215080409040E1F700C00000F5CFF89401
S1050210FFCF1A
S9030000FC
