S00B00004953552E7372656328
S113000092C00000AEC00000ACC00000AAC0000056
S1130010A8C00000A6C00000A4C00000A2C0000048
S113002034C100009EC000009CC000009AC00000C3
S113003098C0000096C0000094C000000C942008F2
S113004090C000008EC000000C9485088AC0000097
S113005088C0000086C0000084C0000082C0000088
S113006080C000007EC000007CC000007AC0000098
S113007078C0000076C0000074C0000072C00000A8
S113008070C000006EC000006CC00000E5050F06E3
S1130090F10585068A05FE050F0799050007A205E7
S11300A00F07090707634236B79BD8A71A39685662
S11300B018AEBAAB558C1D3CB7CC5763BD6DEDFD86
S11300C0753EF6177231BF000000803F0800000043
S11300D0BE922449123EABAAAA2ABECDCCCC4C3E39
S11300E000000080BEABAAAAAA3E00000000BF0028
S11300F00000803F0000000000084178D3BB438724
S1130100D1133D190E3CC3BD4282AD2B3E68EC8237
S113011076BED98FE1A93E4C80EFFFBE01C4FF7FBC
S11301203F000000000011241FBECFEFD0E1DEBF6E
S1130130CDBF11E0A0E0B1E0E8E7FBE100E00BBFD8
S113014002C007900D92A63CB107D9F726E0A6ECB1
S1130150B1E001C01D92A034B207E1F7A4D10C9420
S1130160BA0D4ECF3E9A86B1876E86B9089597B17F
S1130170907E8F71892B87B981EE94E00197F1F716
S113018000C0000084B195B1089580E0F0DF969539
S113019087959695879535C7089520B330E002C0BA
S11301A0359527958A95E2F7822F81708195089578
S11301B0BF92CF92DF92EF92FF920F931F93CF9350
S11301C0DF9300E011E0C0E0D0E0C12CDD24D39443
S11301D0B12CEE24E394F12C8C2FDFDFF8019D2D5C
S11301E020812F3F09F09B2D992369F09D2D8111CA
S11301F09B2D992341F097010C2E02C0220F331F2F
S11302000A94E2F7C22A80830F5F1F4F2196C630FB
S1130210D10511F78C2DDF91CF911F910F91FF9094
S1130220EF90DF90CF90BF90089584B38C6F84BB20
S113023085B3837085BBE1E6F0E080818E7F8083A7
S1130240E2E6F0E080818E7F808381B3807C81BB95
S113025082B38F6382BB87B3806687BB85B38F7994
S113026085BB8AB38F608ABB8BB3807F8BBB1198AD
S113027019980895F894D9DF1FD068D773DF1ED674
S1130280EED06ED02AD7789408951F920F920FB6AD
S11302900F9211248F939F938091C6019091C7016F
S11302A001969093C7018093C6019F918F910F90FF
S11302B00FBE0F901F90189580EC80936A0080E821
S11302C089BF88BF1092C7011092C601089580911A
S11302D0C6019091C7011092C7011092C6010895FA
S11302E0AB9A95B39F70807F892B85BB83EC99E093
S11302F00197F1F700C00000AB9883EC99E00197F7
S1130300F1F700C000000895AB9A25B32F7030E1D7
S1130310839FC0011124822B85BB83EC99E0019754
S1130320F1F700C00000AB9883EC99E00197F1F776
S113033000C000000895CF93C82FAA9883EC99E0D9
S11303400197F1F700C000008C2FCADF8C2FDCDF8F
S113035083EC99E00197F1F700C00000CF91089574
S1130360AFD32FE986E891E0215080409040E1F737
S113037000C0000088E2B4DF88E0DDDF88E2DBDF74
S113038081E0D9DF86E0D7DF8CE0D5DFE8ECF1E06F
S113039088EE91E01192E817F907E1F70895CF93F9
S11303A0C82FAA9A83EC99E00197F1F700C00000E6
S11303B08C2F96DF8C2FA8DFCF9108950F931F9376
S11303C0CF93DF938C01C1E0D0E003C021960F5F8F
S11303D01F4FC131D10531F480ECADDFF8018081CC
S11303E0DEDFF4CFF8018081DADFC032D10574F3A7
S11303F0DF91CF911F910F910895CF93DF936ED327
S1130400EC0198818091C801981318C0DE011196FF
S1130410E9ECF1E028EE31E09D91819198130EC052
S1130420E217F307C9F7DE01E8ECF1E028EE31E06A
S11304308D9181932E173F07D9F705C081E07BDFAB
S1130440CE01BCDFF0CFDF91CF9108958FE073CF61
S113045008958CE070CF089580586DCF0895109260
S1130460E80108951F93CF93DF93BED58150C1E077
S1130470D0E002C0CC0FDD1F8A95E2F71C2FDDD53A
S11304808F3F09F418608091E801181731F08BB39D
S1130490807F8BBB8BB3812B8BBB1093E801DF91E7
S11304A0CF911F910895E6DE70DE82DEBDD4C3EFE6
S11304B0D1E003C068D7C4EFD1E0D4DF9EDF65DEAE
S11304C077DEB2D42197C9F7F5CFDC01EBEFF1E089
S11304D02BE132E08D918193E217F307D9F7089568
S11304E0813081F018F08230D9F0089584E080934F
S11304F0F9018093F8018093F7018093F6018093CA
S1130500F501089587E08093F9018093F80188E06C
S11305108093F70182E08093F6011092F50108952B
S113052085E08093F90184E08093F80189E0809369
S1130530F70183E08093F60181E08093F50108954B
S113054091E09093F2018093F0016093EF01809326
S1130550EE017CDF8091EE017FCF089591E09093CE
S1130560F1012093E9013093EA014093EB015093A8
S1130570EC01E6CF08951092F1014093ED01E0CF34
S113058008958F929F92AF92BF92CF92DF92EF9293
S1130590FF920F931F93CF93DF938091FA018130E1
S11305A009F4CAC020F0823009F4D8C07CC226D530
S11305B0282FCBEFD1E090E00F2EF8EECF2EF3E012
S11305C0DF2EF02DB6010E94580D0F2EF4E6EF2E0B
S11305D0F12CF02DB7010E94580D605D6A8309E289
S11305E0209F812D112482958F700F2EF4E6BF2E4B
S11305F0F02D322F8B9D301911241DEC319F812D4C
S11306001124869586958695805D8B83219F812D07
S11306101124869586958695880F982F990F990FA2
S1130620890F281B205D2C83CBD4809F012D11249E
S113063002950F7090E3900F9E83982F0B9D901955
S11306401124919F912D1124969596959695905DE0
S11306509F83819F112D1124169516951695110FC0
S1130660912F990F990F190F811B805D8887CCD426
S113067070D79B01CB01B6010E94580D605D6C8759
S1130680B7010E94580D605D6D87C901B7010E94D2
S1130690580D0AE010E0B8010E94580D605D6E87A5
S11306A0C901B8010E94580D805D8F8744D44B0165
S11306B05C014FD7605D6A8B0F2EFEE2FF2EF02D9A
S11306C0FB8A20E030E040E251E4C501B4010E941D
S11306D0900B3FD7CB01B8010E94580D805D8C8BE5
S11306E041D44B015C0135D7605D6F8BF88E20E0FF
S11306F030E040E251E4C501B4010E94900B29D7D7
S1130700CB01B8010E94580D805D898F42D44B0102
S11307105C011FD7605D6C8FFD8E20E030E040E20D
S113072051E4C501B401FCD714D7CB01B8010E9430
S1130730580D805D8E8FB7C1A091F30180E1A89F11
S1130740D0011124AA59BE4FEBEFF1E02BE032E0C7
S11307508D918193E217F307D9F7A5C18091F30135
S1130760823009F49EC030F4882369F0813009F4A2
S113077051C099C1843009F423C108F4D9C085302B
S113078009F468C190C18091F201811106C0D3D3EC
S11307909B01AC0165E083E0E1DECBEFD1E08BE4CB
S11307A0888380E789838DE38A83C090E901D090B0
S11307B0EA01E090EB01F090EC01C701B601C9D663
S11307C0605D6B8320E030E040E251E4C701B60194
S11307D0A7D7BFD60AE010E0CB01B8010E94580D9C
S11307E0805D8C8320E030E048EC52E4C701B60120
S11307F097D7AFD6CB01B8010E94580D805D8D8389
S1130800E1E0F2E02BE032E080E28193E217F307CB
S1130810E1F749C18091F201811106C0A3D39B0184
S1130820AC0165E083E09ADECBEFD1E08BE4888312
S113083089E689838DE38A83C090E901D090EA0137
S1130840E090EB01F090EC01C701B60182D6605D47
S11308506B8320E030E040E251E4C701B60160D789
S113086078D60AE010E0CB01B8010E94580D805DF3
S11308708C8320E030E048EC52E4C701B60150D745
S113088068D6CB01B8010E94580D805D8D83E1E0EC
S1130890F2E02BE032E080E28193E217F307E1F724
S11308A002C18091F201811106C073D39B01AC0196
S11308B065E083E053DECBEFD1E08BE4888384E60C
S11308C089838DE38A83C090E901D090EA01E090A6
S11308D0EB01F090EC01C701B6013BD6605D6B8380
S11308E020E030E040E251E4C701B60119D731D627
S11308F00AE010E0CB01B8010E94580D805D8C83A2
S113090020E030E048EC52E4C701B60109D721D613
S1130910CB01B8010E94580D805D8D83E1E0F2E0C7
S11309202BE032E080E28193E217F307E1F7BBC0EA
S11309308091F201811105C043D3482F6CE08AE015
S11309401ADEEBEFF1E084E7808398E291838283FF
S113095091E6938392E7948397E6958395E696834D
S1130960878389E280879DE391879091ED01989F29
S1130970812D112482958F7020E3280F2287292F3F
S113098034E6839F201911248DEC289F212D1124F6
S1130990269526952695205D2387989F812D1124E1
S11309A0869586958695880F282F220F220F820F11
S11309B0981B905D948780E285878687878773C0BC
S11309C08091F201811105C005D3482F6EE08CE0BF
S11309D0D2DDEBEFF1E084E7808398E2918393E743
S11309E0928398E6938395E79483858324E626830C
S11309F08FE6878387E780878EE6818789E282870F
S1130A009DE393879091ED01989F812D1124829508
S1130A108F7030E3380F3487392F829F30191124B7
S1130A208DEC389F212D1124269526952695205D41
S1130A302587989F812D1124869586958695880F04
S1130A40282F220F220F820F981B905D968780E239
S1130A50878729C08091F201811105C0C5D2482F32
S1130A606FE08FE088DDEBEFF1E091E6908383E6C1
S1130A70818384E7828389E6838386E7848325E60A
S1130A80258380E2868332E7378320872CE621871B
S1130A90928799E7938784879DE3958786878091DA
S1130AA0ED01805D8787DF91CF911F910F91FF90BA
S1130AB0EF90DF90CF90BF90AF909F908F9008956C
S1130AC01092F20186E491E000DD1092FA0180E0D8
S1130AD007DD8BE08093F40154CD089552DD8091BD
S1130AE0F201882319F08091EE01B6DC8BEF91E0DE
S1130AF008951092F201ADCC0895CF92DF92EF9257
S1130B00FF9290E08C30910508F089C1FC01EA5B0A
S1130B10FF4FE1C78091F2018111EBDF86E291E0A2
S1130B20D4DC81E08093FA011092F301D9DC29DD51
S1130B3076C186E491E0C9DC1092FA0180E0D0DC51
S1130B4020DD6DC1D6DF8091F301823001F128F4FC
S1130B50882349F0813089F02FC0843031F108F1C5
S1130B60853039F129C06091E9017091EA018091E1
S1130B70EB019091EC01E8D11FC06091E901709103
S1130B80EA018091EB019091EC01F5D115C06091DF
S1130B90E9017091EA018091EB019091EC0102D29C
S1130BA00BC08091ED010FD207C08091ED0115D2E9
S1130BB003C08091ED011BD286E291E086DC81E0E6
S1130BC08093FA018DDCDDDC2AC18091F3018F5F13
S1130BD0863019F08093F30102C01092F301D1DC46
S1130BE01EC18091F301811104C085E08093F3015B
S1130BF003C081508093F301C4DC11C18091EE01E4
S1130C008F5F8093EE019091EF01981720F480910B
S1130C10F0018093EE018091EE011EDC00C1809111
S1130C20F101882309F43CC08091EE0190E0209109
S1130C30EF01821B91096EEF7FEF681B790B072E82
S1130C40000C880B990BB8D49B01AC0160E070E0F8
S1130C5080E291E4C8D59B01AC016091E9017091F7
S1130C60EA018091EB019091EC01A2D36B017C012C
S1130C7020E030E0A90150D518164CF4C092E901E7
S1130C80D092EA01E092EB01F092EC013CC01092A8
S1130C90E9011092EA011092EB011092EC0133C0C9
S1130CA08091F301853021F16091EF0170E0809132
S1130CB0EE01681B7109072E000C880B990B7CD47C
S1130CC09B01AC0160E070E080E291E48CD546D4F5
S1130CD08091ED01282F30E0261B310912161306EE
S1130CE024F4861B8093ED010EC01092ED010BC01D
S1130CF08091ED01813021F483E08093ED0103C004
S1130D0081508093ED013DDC8AC08091F1018823FC
S1130D1009F43FC08091EE0190E02091EF01821B25
S1130D2091096EEF7FEF681B790B072E000C880B7F
S1130D30990B42D49B01AC0160E070E080E291E445
S1130D4052D52091E9013091EA014091EB01509193
S1130D50EC012FD36B017C0120E030E040E251E450
S1130D608CD388234CF4C092E901D092EA01E0923A
S1130D70EB01F092EC0142C08AE097EDAFE1B1E4FF
S1130D808093E9019093EA01A093EB01B093EC0105
S1130D9035C08091F301853031F16091EF0170E04D
S1130DA08091EE01681B7109072E000C880B990BCA
S1130DB003D49B01AC0160E070E080E291E413D5C0
S1130DC0CDD32091ED01862F90E0820F911D8F3FAE
S1130DD0910509F024F4260F2093ED010FC08FEF45
S1130DE08093ED010BC08091ED018F5F843018F486
S1130DF08093ED0103C081E08093ED01C2DB0FC05D
S1130E0086E091E062DB82E08093FA0169DBB9DB82
S1130E1006C013D18F3F11F409D101C00AD1FF904C
S1130E20EF90DF90CF9008950F931F93CF93DF93AC
S1130E30C1E0D0E0082F10E001C021969E012150AE
S1130E403109A801022E02C0559547950A94E2F78C
S1130E5040FF2BC022303105C1F038F42115310593
S1130E6061F02130310569F020C024303105A9F04A
S1130E7080F025303105A9F018C08091F4013DDEE1
S1130E80DCCF8091F90139DED8CF8091F60135DECF
S1130E90D4CF8091F50131DED0CF8091F7012DDEE2
S1130EA0CCCF8091F80129DEC8CFC830D1050CF42D
S1130EB0C4CFDF91CF911F910F9108958BE090E003
S1130EC02FD660932C0270932D0280932E02909360
S1130ED02F0287E090E024D66093280270932902C1
S1130EE080932A0290932B0283E090E019D66093BA
S1130EF0240270932502809326029093270282E0B5
S1130F0090E006D68093230281E090E001D680939E
S1130F10220280E090E0FCD58093210210921C0212
S1130F2010921D0210921E0210921F0210922002B3
S1130F3010921B02089560912C0270912D028091F1
S1130F402E0290912F020895AB01BC0140932C0214
S1130F5050932D0260932E0270932F028BE090E049
S1130F60F1C50895609128027091290280912A02A6
S1130F7090912B020895AB01BC0140932802509339
S1130F80290260932A0270932B0287E090E0DAC56D
S1130F900895609124027091250280912602909117
S1130FA027020895AB01BC0140932402509325020B
S1130FB0609326027093270283E090E0C3C50895EE
S1130FC080912302089580932302682F82E090E0A9
S1130FD0ACC5089580912202089580932202682F5F
S1130FE081E090E0A2C50895809121020895809344
S1130FF02102682F80E090E098C508958091200236
S1131000089580932002089560911C0270911D023E
S113101080911E0290911F02089560931C027093A8
S11310201D0280931E0290931F02089510921B02CA
S113103008958FEF80931B02089580911B020895F9
S11310401F920F920FB60F9211240BB60F922F938B
S11310503F934F935F936F937F938F939F93AF933C
S1131060BF93EF93FF9380913002909131020196E8
S1131070873E23E092072CF4909331028093300250
S11310800BC0109231021092300221D9BC01990F89
S1131090880B990B91D2C1DFFF91EF91BF91AF9172
S11310A09F918F917F916F915F914F913F912F917C
S11310B00F900BBE0F900FBE0F901F90189510BE8F
S11310C08CE083BF12BE8BE981BF87B7826087BF84
S11310D010923102109230020895F1CF08951092C7
S11310E03F0610923E0610923D0610923C06109266
S11310F03F0210923302E3E4F2E08FE396E01082C1
S11311003496E817F907D9F708951F920F920FB68E
S11311100F9211240BB60F928F939F93EF93FF932B
S1131120809132029CB1E82FF0E0EB5CFD4F90839C
S11311308F5F80933202FF91EF919F918F910F9077
S11311400BBE0F900FBE0F901F9018951BB888E927
S11311508AB986E8809395001092900080E489B95A
S113116010923402BCCF08955D9BFECF8CB90895D4
S113117010923202E5E3F2E08FE392E01192E81775
S1131180F907E1F70895CF93DF9360913202662364
S113119009F442C070E0E5E3F2E09181F38140E0BC
S11311A050E080E0EFEFB5E0D7E0CAE0A92F992343
S11311B0F9F0963619F0993919F01CC02B2F1FC07D
S11311C0FF23D1F0F63681F028F4F33349F0F535F6
S11311D039F014C0FA3A31F0FC3C41F0F93971F4B9
S11311E02C2F0DC02D2F0BC02D2F09C02D2F07C064
S11311F02E2F05C02E2F03C02E2F01C02E2F30E01E
S1131200215031092417350709F48A2F4F5F5F4FA6
S11312104617570761F601C080E0DF91CF9108952A
S113122020913202422F50E0425051094230510580
S113123064F0E6E3F2E030E02D5C3D4F90E0819114
S1131240980FE217F307D9F701C090E0FA01EB5CBD
S1131250FD4F81E02081291380E00895CF938636E5
S113126019F0893951F056C0E8DEC82F8F3F11F4C8
S1131270DDDE53C0DEDECFEF50C08091380286360B
S113128009F43EC028F4833359F08535B1F044C0E5
S11312908A3A69F18C3CC9F1893909F03DC01AC018
S11312A0E5E3F2E05781468135812481652F742F6F
S11312B0832F922F49DEC0E030C0E5E3F2E057818E
S11312C0468135812481652F742F832F922F53DE1D
S11312D0C0E023C0E5E3F2E05781468135812481F3
S11312E0652F742F832F922F5DDEC0E016C0C0914E
S11312F039028C2F68DE8FEF87BBC8BBC0E00DC0FE
S1131300809139026ADEC0E008C0809139026FDE44
S1131310C0E003C0C0E001C0C0E08C2FCF910895AD
S1131320CF93DF93C82FD62F8BEB1EDF8FEF1CDFFD
S113133089E91ADF8AEF18DF61DE16DF81E114DF45
S113134080E012DF8FEF10DF89E90EDF8FEA0CDF18
S11313508FE00ADF81E108DF80E006DFCC2371F053
S11313608FEF02DFDD2319F08CECFEDE02C083E395
S1131370FBDE80913702F8DE80E0F6DE81E8F4DE01
S1131380DF91CF910895CF93DF93FDDEC82F88239B
S113139041F046DFD82F882311F08C2F5FDFE8DE81
S11313A001C0D0E06D2F8C2FBBDFDF91CF9108956A
S11313B05058BB27AA270ED075C166D130F06BD127
S11313C020F031F49F3F11F41EF45BC10EF4E0955C
S11313D0E7FB51C1E92F77D180F3BA17620773078E
S11313E08407950718F071F49EF58FC10EF4E0950B
S11313F00B2EBA2FA02D0B01B90190010C01CA01CB
S1131400A0011124FF27591B99F0593F50F4503E75
S113141068F11A16F040A22F232F342F4427585F67
S1131420F3CF469537952795A795F0405395C9F77F
S11314307EF41F16BA0B620B730B840BBAF0915037
S1131440A1F0FF0FBB1F661F771F881FC2F70EC0D6
S1131450BA0F621F731F841F48F4879577956795A9
S1131460B795F7959E3F08F0B3CF9395880F08F092
S11314709927EE0F979587950895D9D008F481E0C0
S113148008950CD00FC107D140F0FED030F021F404
S11314905F3F19F0F0C0511139C1F3C014D198F372
S11314A09923C9F35523B1F3951B550BBB27AA27E1
S11314B062177307840738F09F5F5F4F220F331F53
S11314C0441FAA1FA9F333D00E2E3AF0E0E830D01F
S11314D091505040E695001CCAF729D0FE2F27D022
S11314E0660F771F881FBB1F261737074807AB07F0
S11314F0B0E809F0BB0B802DBF01FF2793585F4F65
S11315002AF09E3F510568F0B6C000C15F3FECF37E
S1131510983EDCF3869577956795B795F7959F5F29
S1131520C9F7880F911D9695879597F90895E1E07D
S1131530660F771F881FBB1F621773078407BA07DC
S113154020F0621B730B840BBA0BEE1F88F7E09537
S1131550089504D06894B111D9C00895BCD088F01E
S11315609F5790F0B92F9927B751A0F0D1F0660F8B
S1131570771F881F991F1AF0BA95C9F712C0B130A6
S113158081F0C3D0B1E00895C0C0672F782F8827B9
S1131590B85F39F0B93FCCF3869577956795B395E5
S11315A0D9F73EF490958095709561957F4F8F4F54
S11315B09F4F0895E89409C097FB3EF49095809559
S11315C0709561957F4F8F4F9F4F9923A9F0F92F05
S11315D096E9BB279395F695879577956795B79583
S11315E0F111F8CFFAF4BB0F11F460FF1BC06F5F69
S11315F07F4F8F4F9F4F16C0882311F096E911C07B
S1131600772321F09EE8872F762F05C0662371F09B
S113161096E8862F70E060E02AF09A95660F771FAF
S1131620881FDAF7880F9695879597F90895990F8B
S11316300008550FAA0BE0E8FEEF16161706E80798
S1131640F907C0F012161306E407F50798F0621BB9
S1131650730B840B950B39F40A2661F0232B242B8E
S1131660252B21F408950A2609F4A140A6958FEFAD
S1131670811D811D089597F99F6780E870E060E0FF
S113168008959FEF80EC089500240A941616170617
S113169018060906089500240A941216130614065F
S11316A005060895092E0394000C11F4882352F0C2
S11316B0BB0F40F4BF2B11F460FF04C06F5F7F4F7A
S11316C08F4F9F4F089557FD9058440F551F59F061
S11316D05F3F71F04795880F97FB991F61F09F3F1B
S11316E079F087950895121613061406551FF2CF44
S11316F04695F1DF08C0161617061806991FF1CF94
S113170086957105610508940895E894BB276627BA
S11317107727CB0197F908958ADF08F48FEF0895AE
S11317200BD0C0CFB1DF28F0B6DF18F0952309F055
S1131730A2CFA7CF1124EACFC6DFA0F3959FD1F3A0
S1131740950F50E0551F629FF001729FBB27F00D6B
S1131750B11D639FAA27F00DB11DAA1F649F6627C0
S1131760B00DA11D661F829F2227B00DA11D621F0F
S1131770739FB00DA11D621F839FA00D611D221FC9
S1131780749F3327A00D611D231F849F600D211DAD
S1131790822F762F6A2F11249F5750408AF0E1F050
S11317A088234AF0EE0FFF1FBB1F661F771F881F99
S11317B091505040A9F79E3F510570F05CCFA6CFE1
S11317C05F3FECF3983EDCF3869577956795B79584
S11317D0F795E7959F5FC1F7FE2B880F911D9695AE
S11317E0879597F90895FA01EE0FFF1F30962105AA
S11317F0310599F16115710561F48038BFE39B07E8
S113180049F168949038810561F08038BFEF9B07F7
S113181041F0992342F5FF3FE1053105210511F11E
S1131820E8940894E795D901AA2329F4AB2FBE2F95
S1131830F85FD0F310C0FF5F70F4A695E0F7F739B6
S113184050F019F0FF3A38F49F779F930CD00F9023
S113185007FC905808953EF014CF60E070E080E8F3
S11318609FE308954FE79F775F934F933F932F93A1
S11318709ED02F913F914F915F9152DF05C019F493
S11318800EF0F9CE42CFFDCE26DFC8F39638C0F76E
S113189007F80F92E8942BE33AEA48EB5FE74EDF50
S11318A00F920F920F924DB75EB70F92C0D0E4EA39
S11318B0F0E016D04F915F91EF91FF91E595EE1F07
S11318C0FF1F49F0FE57E0684427EE0F441FFA95C6
S11318D0E1F74195550B32D00F9007FE26C00895CD
S11318E0DF93CF931F930F93FF92EF92DF927B01CD
S11318F08C01689405C0DA2EEF011EDFFE01E89426
S1131900A5912591359145915591AEF3EF0162DD95
S1131910FE019701A801DA9479F7DF90EF90FF9028
S11319200F911F91CF91DF9108959B01AC0160E06D
S113193070E080E89FE3A5CD9ECEACC0CCDEE8F39A
S11319409923D9F3940F511DBBF39150504094F057
S113195059F0882332F0660F771F881F915050404A
S1131960C1F79E3F510544F7880F911D96958795C1
S113197097F908955F3FACF0983E9CF0BB2786959D
S113198077956795B79508F4B1609395C1F7BB0F48
S113199058F711F460FFE8CF6F5F7F4F8F4F9F4F71
S11319A0E3CFB4CE0EF076C06CCE689464CE93DEF2
S11319B0C8F39923D1F3C6F3DF93CF931F930F9307
S11319C0FF92C92FDD2788232AF02197660F771FFE
S11319D0881FDAF720E030E040E85FEB9FE38839C6
S11319E020F0803E30F021968F77E3DCECECF0E0E1
S11319F003C0DFDCE9EFF0E073DF8B01BE01EC0133
S1131A00FB2E6F5771097595771F880B990BD4DDE1
S1131A1028E132E741E35FE38FDEAF2D9801AE01A9
S1131A20FF900F911F91CF91DF91D4DC3BCEFA014F
S1131A30DC01AA0FBB1F9B01AC01BF5728F422276E
S1131A403327442750781FC0B75188F4AB2F0024A4
S1131A50469537952795011CA395D2F3002069F08C
S1131A60220F331F441FB395DAF30DD0A1CC61309C
S1131A707105A0E88A07B94630F49B01AC016627DA
S1131A80772788279078309621F02083318342830A
S1131A90538308959F3F31F0915020F487957795B3
S1131AA06795B795880F911D9695879597F9089531
S1131AB097FB072E16F4009406D077FD08D014D0B7
S1131AC007FC05D03EF4909581959F4F089570953D
S1131AD061957F4F0895EE0FFF1F0024001C0BBE7D
S1131AE00790F691E02D0994AA1BBB1B51E107C096
S1131AF0AA1FBB1FA617B70710F0A61BB70B881F9A
S1131B00991F5A95A9F780959095BC01CD01089528
S1131B10E199FECF9FBB8EBBE09A99278DB30895C0
S1131B20A6E1B0E044E050E017C0262FE199FECFD3
S1131B309FBB8EBB2DBB0FB6F894E29AE19A0FBE01
S1131B4001960895242FF2DF252FF0DF00C0EDDF8A
S1131B50272FECCFDC01CB01FC01E199FECF06C0BD
S1131B60FFBBEEBBE09A31960DB20D92415050404E
S10B1B70B8F70895F894FFCFC3
S1131B78FFFFFFFFFF002A2A2A2A2A2A2A2A2A2ABA
S1131B882A2A2A2A2A534D454E553E202B2D2053C6
S1131B98454C2042414B2D2A2A2A2A2A2A2A2A2A13
S1131BA82A2A2A2A2A534241434B20202020202033
S1131BB853454C454354743D2A2A2A2F2A2A2A205D
S1131BC8403D2A2A2A2A503D2A2A2A493D2A2A2AD5
S1131BD8443D2A2A2A204B7020202020202020201F
S1131BE8202020312F364B6920202020202020203F
S1131BF8202020322F364B64202020202020202033
S1131C08202020332F367428746172676574292064
S1131C18202020342F36742873687574646F776EA7
S1131C28292020352F367377697463682072656CB0
S1091C38617920362F360D
S9030000FC
