:1000000092C00000AEC00000ACC00000AAC000005A
:10001000A8C00000A6C00000A4C00000A2C000004C
:10002000A0C000009EC000009CC000009AC000005C
:1000300098C0000096C0000094C0000092C000006C
:1000400090C000008EC00000E4C700008AC000001D
:1000500088C0000086C0000084C0000082C000008C
:1000600080C000007EC000007CC000007AC000009C
:1000700078C0000076C0000074C0000072C00000AC
:1000800070C000006EC000006CC00000B805E20542
:10009000C40558065D05D105E2066C05D306750555
:1000A000E206DC0607634236B79BD8A71A396856C2
:1000B00018AEBAAB558C1D3CB7CC5763BD6DEDFD8A
:1000C000753EF6177231BF000000803F0800000047
:1000D000BE922449123EABAAAA2ABECDCCCC4C3E3D
:1000E00000000080BEABAAAAAA3E00000000BF002C
:1000F0000000803F0000000000084178D3BB438728
:10010000D1133D190E3CC3BD4282AD2B3E68EC823B
:1001100076BED98FE1A93E4C80EFFFBE01C4FF7FC0
:100120003F000000000011241FBECFEFD0E1DEBF72
:10013000CDBF11E0A0E0B1E0E0E8FAE100E00BBFE4
:1001400002C007900D92A63CB107D9F726E0A6ECB5
:10015000B1E001C01D92AC33B207E1F779D10C9444
:100160003E0D4ECF3E9A86B1876E86B9089597B1FF
:10017000907E8F71892B87B981EE94E00197F1F71A
:1001800000C0000084B195B1089580E0F0DF0CD785
:1001900081E0EDDFBC0180E090E00E945E0A10C7C4
:1001A000089520B330E002C0359527958A95E2F78F
:1001B000822F817081950895BF92CF92DF92EF9246
:1001C000FF920F931F93CF93DF9300E011E0C0E005
:1001D000D0E0C12CDD24D394B12CEE24E394F12C97
:1001E0008C2FDFDFF8019D2D20812F3F09F09B2D03
:1001F000992369F09D2D81119B2D992341F0970141
:100200000C2E02C0220F331F0A94E2F7C22A808309
:100210000F5F1F4F2196C630D10511F78C2DDF914E
:10022000CF911F910F91FF90EF90DF90CF90BF90F3
:10023000089584B38C6F84BB85B3837085BBE1E67E
:10024000F0E080818C7F8083E2E6F0E080818C7F2B
:10025000808381B3807C81BB82B38F6382BB87B391
:10026000806687BB85B38F7985BB8AB38F608ABB75
:100270008BB3807F8BBB0895F894DBDFEBD672DF06
:10028000F0D5C2D042D078940895AB9A95B39F70C0
:10029000807F892B85BB83EC99E00197F1F700C043
:1002A0000000AB9883EC99E00197F1F700C00000E3
:1002B0000895AB9A25B32F7030E1839FC0011124BC
:1002C000822B85BB83EC99E00197F1F700C0000019
:1002D000AB9883EC99E00197F1F700C00000089516
:1002E000CF93C82FAA9883EC99E00197F1F700C04B
:1002F00000008C2FCADF8C2FDCDF83EC99E00197A4
:10030000F1F700C00000CF910895ADD32FE986E842
:1003100091E0215080409040E1F700C0000088E269
:10032000B4DF88E0DDDF88E2DBDF81E0D9DF86E073
:10033000D7DF8CE0D5DFE6ECF1E086EE91E01192BC
:10034000E817F907E1F70895CF93C82FAA9A83EC2D
:1003500099E00197F1F700C000008C2F96DF8C2FF9
:10036000A8DFCF9108950F931F93CF93DF938C0154
:10037000C1E0D0E003C021960F5F1F4FC131D1050E
:1003800031F480ECADDFF8018081DEDFF4CFF801DD
:100390008081DADFC032D10574F3DF91CF911F91F4
:1003A0000F910895CF93DF936CD3EC0198818091E6
:1003B000C601981318C0DE011196E7ECF1E026EEB5
:1003C00031E09D91819198130EC0E217F307C9F7B0
:1003D000DE01E6ECF1E026EE31E08D9181932E17FF
:1003E0003F07D9F705C081E07BDFCE01BCDFF0CF4E
:1003F000DF91CF9108958FE073CF08958CE070CF97
:10040000089580586DCF08951092E60108951F93C6
:10041000CF93DF93BCD58150C1E0D0E002C0CC0FB8
:10042000DD1F8A95E2F71C2FDBD58F3F09F418609A
:100430008091E601181731F08BB3807F8BBB8BB3B3
:10044000812B8BBB1093E601DF91CF911F91089513
:1004500013DF9BDEB1DEBBD4C3EFD1E003C017D7FF
:10046000C4EFD1E0D4DF9EDF90DEA6DEB0D42197CA
:10047000C9F7F5CFDC01E9EFF1E029E132E08D9138
:100480008193E217F307D9F70895813081F018F0CE
:100490008230D9F0089584E08093F7018093F601CB
:1004A0008093F5018093F4018093F301089587E030
:1004B0008093F7018093F60188E08093F50182E054
:1004C0008093F4011092F301089585E08093F70181
:1004D00084E08093F60189E08093F50183E08093C6
:1004E000F40181E08093F301089591E09093F0018D
:1004F0008093EE016093ED018093EC017CDF8091AD
:10050000EC017FCF089591E09093EF012093E701F4
:100510003093E8014093E9015093EA01E6CF089552
:100520001092EF014093EB01E0CF08958F929F92DC
:10053000AF92BF92CF92DF92EF92FF920F931F93F1
:10054000CF93DF938091F801813009F4C8C020F087
:10055000823009F4D6C07AC224D5282FC9EFD1E061
:1005600090E00F2EF8EECF2EF3E0DF2EF02DB60147
:100570000E94DC0C0F2EF4E6EF2EF12CF02DB701CB
:100580000E94DC0C605D6A8309E2209F812D1124AA
:1005900082958F700F2EF4E6BF2EF02D322F8B9D9B
:1005A000301911241DEC319F812D112486958695DB
:1005B0008695805D8B83219F812D1124869586955C
:1005C0008695880F982F990F990F890F281B205D0A
:1005D0002C83C9D4809F012D112402950F7090E3C4
:1005E000900F9E83982F0B9D90191124919F912D10
:1005F0001124969596959695905D9F83819F112DD8
:100600001124169516951695110F912F990F990F84
:10061000190F811B805D8887CAD41FD79B01CB012E
:10062000B6010E94DC0C605D6C87B7010E94DC0C97
:10063000605D6D87C901B7010E94DC0C0AE010E023
:10064000B8010E94DC0C605D6E87C901B8010E9490
:10065000DC0C805D8F8742D44B015C01FED6605D6F
:100660006A8B0F2EFEE2FF2EF02DFB8A20E030E099
:1006700040E251E4C501B401D7D7EFD6CB01B801B0
:100680000E94DC0C805D8C8B40D44B015C01E5D674
:10069000605D6F8BF88E20E030E040E251E4C501F0
:1006A000B401C2D7DAD6CB01B8010E94DC0C805D60
:1006B000898F42D44B015C01D0D6605D6C8FFD8E7A
:1006C00020E030E040E251E4C501B401ADD7C5D629
:1006D000CB01B8010E94DC0C805D8E8FB7C1A09168
:1006E000F10180E1A89FD0011124AA59BE4FE9EF82
:1006F000F1E029E032E08D918193E217F307D9F719
:10070000A5C18091F101823009F49EC030F48823A4
:1007100069F0813009F451C099C1843009F423C1D2
:1007200008F4D9C0853009F468C190C18091F00106
:10073000811106C0D3D39B01AC0165E083E0E3DE09
:10074000C9EFD1E08BE4888380E789838DE38A83D6
:10075000C090E701D090E801E090E901F090EA0153
:10076000C701B6017AD6605D6B8320E030E040E2DD
:1007700051E4C701B60158D770D60AE010E0CB01AA
:10078000B8010E94DC0C805D8C8320E030E048ECF6
:1007900052E4C701B60148D760D6CB01B8010E9428
:1007A000DC0C805D8D83EFEFF1E029E032E080E248
:1007B0008193E217F307E1F749C18091F0018111BC
:1007C00006C0A3D39B01AC0165E083E09CDEC9EFCA
:1007D000D1E08BE4888389E689838DE38A83C090A6
:1007E000E701D090E801E090E901F090EA01C7014B
:1007F000B60133D6605D6B8320E030E040E251E427
:10080000C701B60111D729D60AE010E0CB01B80123
:100810000E94DC0C805D8C8320E030E048EC52E4E8
:10082000C701B60101D719D6CB01B8010E94DC0C73
:10083000805D8D83EFEFF1E029E032E080E281938B
:10084000E217F307E1F702C18091F001811106C0C0
:1008500073D39B01AC0165E083E055DEC9EFD1E0C5
:100860008BE4888384E689838DE38A83C090E701E3
:10087000D090E801E090E901F090EA01C701B601EB
:10088000ECD5605D6B8320E030E040E251E4C701CD
:10089000B601CAD6E2D50AE010E0CB01B8010E9449
:1008A000DC0C805D8C8320E030E048EC52E4C70132
:1008B000B601BAD6D2D5CB01B8010E94DC0C805D5E
:1008C0008D83EFEFF1E029E032E080E28193E217DF
:1008D000F307E1F7BBC08091F001811105C043D35C
:1008E000482F6CE08AE01CDEE9EFF1E084E78083CA
:1008F00098E29183828391E6938392E7948397E6CB
:10090000958395E69683878389E280879DE3918727
:100910009091EB01989F812D112482958F7020E397
:10092000280F2287292F34E6839F201911248DEC6C
:10093000289F212D1124269526952695205D238715
:10094000989F812D1124869586958695880F282F4E
:10095000220F220F820F981B905D948780E285877B
:100960008687878773C08091F001811105C005D308
:10097000482F6EE08CE0D4DDE9EFF1E084E780837E
:1009800098E2918393E7928398E6938395E7948323
:10099000858324E626838FE6878387E780878EE634
:1009A000818789E282879DE393879091EB01989FED
:1009B000812D112482958F7030E3380F3487392FC1
:1009C000829F301911248DEC389F212D11242695FA
:1009D00026952695205D2587989F812D1124869543
:1009E00086958695880F282F220F220F820F981B3D
:1009F000905D968780E2878729C08091F001811100
:100A000005C0C5D2482F6FE08FE08ADDE9EFF1E045
:100A100091E6908383E6818384E7828389E68383FA
:100A200086E7848325E6258380E2868332E7378361
:100A300020872CE62187928799E7938784879DE317
:100A4000958786878091EB01805D8787DF91CF91C5
:100A50001F910F91FF90EF90DF90CF90BF90AF90DC
:100A60009F908F9008951092F00186E491E002DD4E
:100A70001092F80180E009DD8BE08093F20156CD01
:100A8000089554DD8091F001882319F08091EC01E4
:100A9000B8DC89EF91E008951092F001AFCC089591
:100AA000CF92DF92EF92FF9290E08C30910508F0A8
:100AB00089C1FC01EA5BFF4F92C78091F00181116F
:100AC000EBDF86E291E0D6DC81E08093F8011092C2
:100AD000F101DBDC2BDD76C186E491E0CBDC10920A
:100AE000F80180E0D2DC22DD6DC1D6DF8091F1011A
:100AF000823001F128F4882349F0813089F02FC039
:100B0000843031F108F1853039F129C06091E70175
:100B10007091E8018091E9019091EA01E8D11FC04C
:100B20006091E7017091E8018091E9019091EA01FB
:100B3000F5D115C06091E7017091E8018091E9015C
:100B40009091EA0102D20BC08091EB010FD207C055
:100B50008091EB0115D203C08091EB011BD286E29C
:100B600091E088DC81E08093F8018FDCDFDC2AC132
:100B70008091F1018F5F863019F08093F10102C0FE
:100B80001092F101D3DC1EC18091F101811104C0EA
:100B900085E08093F10103C081508093F101C6DCB0
:100BA00011C18091EC018F5F8093EC019091ED0178
:100BB000981720F48091EE018093EC018091EC0174
:100BC00020DC00C18091EF01882309F43CC08091B2
:100BD000EC0190E02091ED01821B91096EEF7FEF17
:100BE000681B790B072E000C880B990B69D49B01AD
:100BF000AC0160E070E080E291E479D59B01AC014A
:100C00006091E7017091E8018091E9019091EA011A
:100C100053D36B017C0120E030E0A90101D5181607
:100C20004CF4C092E701D092E801E092E901F09221
:100C3000EA013CC01092E7011092E8011092E9012C
:100C40001092EA0133C08091F101853021F1609169
:100C5000ED0170E08091EC01681B7109072E000C1A
:100C6000880B990B2DD49B01AC0160E070E080E211
:100C700091E43DD5F7D38091EB01282F30E0261B7E
:100C800031091216130624F4861B8093EB010EC063
:100C90001092EB010BC08091EB01813021F483E0D5
:100CA0008093EB0103C081508093EB013FDC8AC04D
:100CB0008091EF01882309F43FC08091EC0190E01E
:100CC0002091ED01821B91096EEF7FEF681B790B7C
:100CD000072E000C880B990BF3D39B01AC0160E04D
:100CE00070E080E291E403D52091E7013091E801C2
:100CF0004091E9015091EA01E0D26B017C0120E0D2
:100D000030E040E251E43DD388234CF4C092E70147
:100D1000D092E801E092E901F092EA0142C08AE053
:100D200097EDAFE1B1E48093E7019093E801A093E0
:100D3000E901B093EA0135C08091F101853031F1CC
:100D40006091ED0170E08091EC01681B7109072E44
:100D5000000C880B990BB4D39B01AC0160E070E0F0
:100D600080E291E4C4D47ED32091EB01862F90E001
:100D7000820F911D8F3F910509F024F4260F2093D7
:100D8000EB010FC08FEF8093EB010BC08091EB0163
:100D90008F5F843018F48093EB0103C081E080936F
:100DA000EB01C4DB0FC086E091E064DB82E080935E
:100DB000F8016BDBBBDB06C013D18F3F11F409D107
:100DC00001C00AD1FF90EF90DF90CF9008950F936C
:100DD0001F93CF93DF93C1E0D0E0082F10E001C054
:100DE00021969E0121503109A801022E02C055957D
:100DF00047950A94E2F740FF2BC022303105C1F03D
:100E000038F42115310561F02130310569F020C039
:100E100024303105A9F080F025303105A9F018C043
:100E20008091F2013DDEDCCF8091F70139DED8CF31
:100E30008091F40135DED4CF8091F30131DED0CF43
:100E40008091F5012DDECCCF8091F60129DEC8CF4F
:100E5000C830D1050CF4C4CFDF91CF911F910F9111
:100E600008958BE090E0E0D560932A0270932B0206
:100E700080932C0290932D0287E090E0D5D560936B
:100E8000260270932702809328029093290283E020
:100E900090E0CAD5609322027093230280932402CB
:100EA0009093250282E090E0B7D58093210281E003
:100EB00090E0B2D58093200280E090E0ADD58093A1
:100EC0001F0210921A0210921B0210921C02109222
:100ED0001D0210921E0210921902089560912A02BA
:100EE00070912B0280912C0290912D020895AB01FC
:100EF000BC0140932A0250932B0260932C02709302
:100F00002D028BE090E0A2C50895609126027091B9
:100F1000270280912802909129020895AB01BC011B
:100F2000409326025093270260932802709329026F
:100F300087E090E08BC508956091220270912302B2
:100F400080912402909125020895AB01BC01409349
:100F5000220250932302609324027093250283E0BF
:100F600090E074C508958091210208958093210234
:100F7000682F82E090E05DC5089580912002089579
:100F800080932002682F81E090E053C508958091FE
:100F90001F02089580931F02682F80E090E049C5EA
:100FA000089580911E02089580931E020895609115
:100FB0001A0270911B0280911C0290911D020895EB
:100FC00060931A0270931B0280931C0290931D027F
:100FD00008951092190208958FEF809319020895D1
:100FE00080911902089510923B0610923A061092D1
:100FF00039061092380610923B0210922F02EFE34E
:10100000F2E08BE396E010823496E817F907D9F7FF
:1010100008951F920F920FB60F9211240BB60F92E4
:101020008F939F93EF93FF9380912E029CB1E82FB3
:10103000F0E0EF5CFD4F90838F5F80932E02FF9175
:10104000EF919F918F910F900BBE0F900FBE0F905D
:101050001F9018951BB888E98AB986E88093950097
:101060001092900080E489B910923002BCCF0895AC
:101070005D9BFECF8CB9089510922E02E1E3F2E061
:101080008BE392E01192E817F907E1F70895CF9307
:10109000DF9360912E02662309F442C070E0E1E321
:1010A000F2E09181F38140E050E080E0EFEFB5E0C5
:1010B000D7E0CAE0A92F9923F9F0963619F09939AB
:1010C00019F01CC02B2F1FC0FF23D1F0F63681F082
:1010D00028F4F33349F0F53539F014C0FA3A31F019
:1010E000FC3C41F0F93971F42C2F0DC02D2F0BC0B1
:1010F0002D2F09C02D2F07C02E2F05C02E2F03C066
:101100002E2F01C02E2F30E0215031092417350732
:1011100009F48A2F4F5F5F4F4617570761F601C0EA
:1011200080E0DF91CF91089520912E02422F50E070
:10113000425051094230510564F0E2E3F2E030E000
:10114000215D3D4F90E08191980FE217F307D9F7A9
:1011500001C090E0FA01EF5CFD4F81E0208129138E
:1011600080E00895CF93863619F0893951F056C042
:1011700037DFC82F8F3F11F42CDF53C02DDFCFEFA7
:1011800050C080913402863609F43EC028F483337F
:1011900059F08535B1F044C08A3A69F18C3CC9F107
:1011A000893909F03DC01AC0E1E3F2E05781468178
:1011B00035812481652F742F832F922F98DEC0E014
:1011C00030C0E1E3F2E05781468135812481652F0B
:1011D000742F832F922FA2DEC0E023C0E1E3F2E060
:1011E0005781468135812481652F742F832F922F5B
:1011F000ACDEC0E016C0C09135028C2FB7DE8FEF99
:1012000087BBC8BBC0E00DC080913502B9DEC0E02D
:1012100008C080913502BEDEC0E003C0C0E001C05E
:10122000C0E08C2FCF910895CF93DF93C82FD62F96
:101230008BEB1EDF8FEF1CDF89E91ADF8AEF18DFE7
:10124000B0DE16DF81E114DF80E012DF8FEF10DF08
:1012500089E90EDF8FEA0CDF8FE00ADF81E108DF2A
:1012600080E006DFCC2371F08FEF02DFDD2319F081
:101270008CECFEDE02C083E3FBDE80913302F8DEFD
:1012800080E0F6DE81E8F4DEDF91CF910895CF9320
:10129000DF93FDDEC82F882341F046DFD82F882357
:1012A00011F08C2F5FDFE8DE01C0D0E06D2F8C2FB6
:1012B000BBDFDF91CF9108955058BB27AA270ED0EE
:1012C00075C166D130F06BD120F031F49F3F11F43D
:1012D0001EF45BC10EF4E095E7FB51C1E92F77D115
:1012E00080F3BA17620773078407950718F071F443
:1012F0009EF58FC10EF4E0950B2EBA2FA02D0B0199
:10130000B90190010C01CA01A0011124FF27591B4A
:1013100099F0593F50F4503E68F11A16F040A22F50
:10132000232F342F4427585FF3CF469537952795C1
:10133000A795F0405395C9F77EF41F16BA0B620BC0
:10134000730B840BBAF09150A1F0FF0FBB1F661F07
:10135000771F881FC2F70EC0BA0F621F731F841F4A
:1013600048F4879577956795B795F7959E3F08F070
:10137000B3CF9395880F08F09927EE0F979587952F
:101380000895D9D008F481E008950CD00FC107D199
:1013900040F0FED030F021F45F3F19F0F0C0511161
:1013A00039C1F3C014D198F39923C9F35523B1F38C
:1013B000951B550BBB27AA2762177307840738F0C4
:1013C0009F5F5F4F220F331F441FAA1FA9F333D023
:1013D0000E2E3AF0E0E830D091505040E695001CD7
:1013E000CAF729D0FE2F27D0660F771F881FBB1F93
:1013F000261737074807AB07B0E809F0BB0B802D6D
:10140000BF01FF2793585F4F2AF09E3F510568F0B8
:10141000B6C000C15F3FECF3983EDCF3869577954C
:101420006795B795F7959F5FC9F7880F911D9695BA
:10143000879597F90895E1E0660F771F881FBB1F16
:10144000621773078407BA0720F0621B730B840BC3
:10145000BA0BEE1F88F7E095089504D06894B11197
:10146000D9C00895BCD088F09F5790F0B92F992724
:10147000B751A0F0D1F0660F771F881F991F1AF09F
:10148000BA95C9F712C0B13081F0C3D0B1E0089568
:10149000C0C0672F782F8827B85F39F0B93FCCF3E9
:1014A000869577956795B395D9F73EF49095809595
:1014B000709561957F4F8F4F9F4F0895E89409C0B5
:1014C00097FB3EF490958095709561957F4F8F4F77
:1014D0009F4F9923A9F0F92F96E9BB279395F6958D
:1014E000879577956795B795F111F8CFFAF4BB0F0B
:1014F00011F460FF1BC06F5F7F4F8F4F9F4F16C06F
:10150000882311F096E911C0772321F09EE8872FF8
:10151000762F05C0662371F096E8862F70E060E0B4
:101520002AF09A95660F771F881FDAF7880F96952D
:10153000879597F90895990F0008550FAA0BE0E8D1
:10154000FEEF16161706E807F907C0F01216130685
:10155000E407F50798F0621B730B840B950B39F4C5
:101560000A2661F0232B242B252B21F408950A262B
:1015700009F4A140A6958FEF811D811D089597F96B
:101580009F6780E870E060E008959FEF80EC089529
:1015900000240A9416161706180609060895002452
:1015A0000A9412161306140605060895092E0394CC
:1015B000000C11F4882352F0BB0F40F4BF2B11F440
:1015C00060FF04C06F5F7F4F8F4F9F4F089557FD9F
:1015D0009058440F551F59F05F3F71F04795880FA1
:1015E00097FB991F61F09F3F79F087950895121638
:1015F00013061406551FF2CF4695F1DF08C01616E4
:1016000017061806991FF1CF869571056105089494
:101610000895E894BB2766277727CB0197F90895AB
:101620008ADF08F48FEF08950BD0C0CFB1DF28F028
:10163000B6DF18F0952309F0A2CFA7CF1124EACF87
:10164000C6DFA0F3959FD1F3950F50E0551F629F21
:10165000F001729FBB27F00DB11D639FAA27F00D0B
:10166000B11DAA1F649F6627B00DA11D661F829F32
:101670002227B00DA11D621F739FB00DA11D621F17
:10168000839FA00D611D221F749F3327A00D611D34
:10169000231F849F600D211D822F762F6A2F112416
:1016A0009F5750408AF0E1F088234AF0EE0FFF1F69
:1016B000BB1F661F771F881F91505040A9F79E3FA0
:1016C000510570F05CCFA6CF5F3FECF3983EDCF3A2
:1016D000869577956795B795F795E7959F5FC1F7DD
:1016E000FE2B880F911D9695879597F90895FA011D
:1016F000EE0FFF1F30962105310599F16115710537
:1017000061F48038BFE39B0749F168949038810504
:1017100061F08038BFEF9B0741F0992342F5FF3F0E
:10172000E1053105210511F1E8940894E795D90107
:10173000AA2329F4AB2FBE2FF85FD0F310C0FF5FB0
:1017400070F4A695E0F7F73950F019F0FF3A38F445
:101750009F779F930CD00F9007FC905808953EF010
:1017600014CF60E070E080E89FE308954FE79F7733
:101770005F934F933F932F939ED02F913F914F9123
:101780005F9152DF05C019F40EF0F9CE42CFFDCEC5
:1017900026DFC8F39638C0F707F80F92E8942BE3DA
:1017A0003AEA48EB5FE74EDF0F920F920F924DB788
:1017B0005EB70F92C0D0E4EAF0E016D04F915F918F
:1017C000EF91FF91E595EE1FFF1F49F0FE57E0688E
:1017D0004427EE0F441FFA95E1F74195550B32D09F
:1017E0000F9007FE26C00895DF93CF931F930F93AA
:1017F000FF92EF92DF927B018C01689405C0DA2E94
:10180000EF011EDFFE01E894A591259135914591E8
:101810005591AEF3EF0162DDFE019701A801DA9464
:1018200079F7DF90EF90FF900F911F91CF91DF91AB
:1018300008959B01AC0160E070E080E89FE3A5CDD6
:101840009ECEACC0CCDEE8F39923D9F3940F511DA2
:10185000BBF39150504094F059F0882332F0660F5A
:10186000771F881F91505040C1F79E3F510544F7A4
:10187000880F911D9695879597F908955F3FACF075
:10188000983E9CF0BB27869577956795B79508F4A9
:10189000B1609395C1F7BB0F58F711F460FFE8CF23
:1018A0006F5F7F4F8F4F9F4FE3CFB4CE0EF076C068
:1018B0006CCE689464CE93DEC8F39923D1F3C6F35B
:1018C000DF93CF931F930F93FF92C92FDD278823B8
:1018D0002AF02197660F771F881FDAF720E030E0A3
:1018E00040E85FEB9FE3883920F0803E30F021969E
:1018F0008F77E3DCECECF0E003C0DFDCE9EFF0E055
:1019000073DF8B01BE01EC01FB2E6F5771097595DA
:10191000771F880B990BD4DD28E132E741E35FE3C1
:101920008FDEAF2D9801AE01FF900F911F91CF91E7
:10193000DF91D4DC3BCEFA01DC01AA0FBB1F9B0177
:10194000AC01BF5728F422273327442750781FC003
:10195000B75188F4AB2F0024469537952795011C85
:10196000A395D2F3002069F0220F331F441FB395D3
:10197000DAF30DD0A1CC61307105A0E88A07B94631
:1019800030F49B01AC016627772788279078309642
:1019900021F0208331834283538308959F3F31F0A8
:1019A000915020F4879577956795B795880F911D8D
:1019B0009695879597F9089597FB072E16F400944E
:1019C00006D077FD08D014D007FC05D03EF49095E2
:1019D00081959F4F0895709561957F4F0895EE0F03
:1019E000FF1F0024001C0BBE0790F691E02D099408
:1019F000AA1BBB1B51E107C0AA1FBB1FA617B70735
:101A000010F0A61BB70B881F991F5A95A9F7809550
:101A10009095BC01CD010895E199FECF9FBB8EBB8F
:101A2000E09A99278DB30895A6E1B0E044E050E034
:101A300017C0262FE199FECF9FBB8EBB2DBB0FB6E3
:101A4000F894E29AE19A0FBE01960895242FF2DFEE
:101A5000252FF0DF00C0EDDF272FECCFDC01CB011D
:101A6000FC01E199FECF06C0FFBBEEBBE09A3196C8
:101A70000DB20D9241505040B8F70895F894FFCF41
:101A8000FFFFFFFFFF002A2A2A2A2A2A2A2A2A2AB7
:101A90002A2A2A2A2A534D454E553E202B2D2053C3
:101AA000454C2042414B2D2A2A2A2A2A2A2A2A2A10
:101AB0002A2A2A2A2A534241434B20202020202030
:101AC00053454C454354743D2A2A2A2F2A2A2A205A
:101AD000403D2A2A2A2A503D2A2A2A493D2A2A2AD2
:101AE000443D2A2A2A204B7020202020202020201C
:101AF000202020312F364B6920202020202020203C
:101B0000202020322F364B6420202020202020202F
:101B1000202020332F367428746172676574292061
:101B2000202020342F36742873687574646F776EA4
:101B3000292020352F367377697463682072656CAD
:061B4000617920362F360A
:00000001FF
