:1000000090C00000ACC00000AAC00000A8C0000062
:10001000A6C00000A4C00000A2C00000A0C0000054
:100020009EC000009CC000009AC0000098C0000064
:1000300096C0000094C0000092C0000090C0000074
:100040008EC000008CC0000032C7000088C00000D5
:1000500086C0000084C0000082C0000080C0000094
:100060007EC000007CC000007AC0000078C00000A4
:1000700076C0000074C0000072C0000070C00000B4
:100080006EC000006CC000006AC0000070059A05D8
:100090007C05EB0515058905440624053C062D0560
:1000A00007634236B79BD8A71A39685618AEBAAB61
:1000B000558C1D3CB7CC5763BD6DEDFD753EF617F5
:1000C0007231BF000000803F08000000BE9224494A
:1000D000123EABAAAA2ABECDCCCC4C3E000000807A
:1000E000BEABAAAAAA3E00000000BF000000803FED
:1000F0000000000000084178D3BB4387D1133D19AD
:100100000E3CC3BD4282AD2B3E68EC8276BED98FD9
:10011000E1A93E4C80EFFFBE01C4FF7F3F0000001D
:10012000000011241FBECFEFD0E1DEBFCDBF11E034
:10013000A0E0B1E0E0E4F6E100E00BBF02C0079010
:100140000D92A63CB107D9F722E0A6ECB1E001C0C0
:100150001D92AE33B207E1F753D10C941E0B50CF72
:1001600087B1806687B986B1876E86B9089597B1E1
:10017000987F97B997B1892B87B985B10895CF93A7
:1001800081E0F5DFC82F80E0F2DF2C2F30E0322F46
:100190002227A901482BCA01CF91089520B330E04E
:1001A00002C0359527958A95E2F7822F8170819557
:1001B0000895BF92CF92DF92EF92FF920F931F9319
:1001C000CF93DF9300E011E0C0E0D0E0C12CDD244C
:1001D000D394B12CEE24E394F12C8C2FDFDFF801C3
:1001E0009D2D20812F3F09F09B2D992369F09D2D96
:1001F00081119B2D992341F097010C2E02C0220FF3
:10020000331F0A94E2F7C22A80830F5F1F4F2196A3
:10021000C630D10511F78C2DDF91CF911F910F9131
:10022000FF90EF90DF90CF90BF90089584B38C6FD4
:1002300084BB85B3837085BBE1E6F0E080818C7F71
:100240008083E2E6F0E080818C7F808381B3807CD4
:1002500081BB82B38F6382BB84B3836084BB85B36D
:100260008C7F85BB8AB387608ABB8BB3887F8BBB4F
:100270000895F894DBDF2AD673DF4FD542D0789407
:100280000895AB9A95B39F70807F892B85BB83ECD3
:1002900099E00197F1F700C00000AB9883EC99E07A
:1002A0000197F1F700C000000895AB9A25B32F70B5
:1002B00030E1839FC0011124822B85BB83EC99E040
:1002C0000197F1F700C00000AB9883EC99E001972B
:1002D000F1F700C000000895CF93C82FAA9883ECCF
:1002E00099E00197F1F700C000008C2FCADF8C2F36
:1002F000DCDF83EC99E00197F1F700C00000CF91BB
:1003000008952FE986E891E0215080409040E1F780
:1003100000C0000088E2B5DF88E0DEDF88E2DCDFD5
:1003200081E0DADF86E0D8DF8CE0D6DFE6ECF1E0D2
:1003300086EE91E01192E817F907E1F75AC30895A4
:10034000CF93C82FAA9A83EC99E00197F1F700C0E8
:1003500000008C2F96DF8C2FA8DFCF9108950F938C
:100360001F93CF93DF938C01C1E0D0E003C02196AF
:100370000F5F1F4FC131D10531F480ECADDFF801C3
:100380008081DEDFF4CFF8018081DADFC032D10571
:1003900074F3DF91CF911F910F910895CF93DF9365
:1003A0007ED0EC0198818091C601981318C0DE01BF
:1003B0001196E7ECF1E026EE31E09D9181919813E2
:1003C0000EC0E217F307C9F7DE01E6ECF1E026EE16
:1003D00031E08D9181932E173F07D9F705C081E059
:1003E0007BDFCE01BCDFF0CFDF91CF9108958FE0AE
:1003F00073CF08958CE070CF089580586DCF089525
:1004000038DFD1E0BCDED5DEC82F43D4C5FF03C042
:100410008BB38D278BBBC2DF66D587EA91E6019748
:10042000F1F700C00000EECFDC01E7EFF1E027E1DB
:1004300032E08D918193E217F307D9F70895813067
:1004400081F018F08230D9F0089584E08093F501AE
:100450008093F4018093F3018093F2018093F10182
:10046000089587E08093F5018093F40188E08093FC
:10047000F30182E08093F2011092F101089585E08A
:100480008093F50184E08093F40189E08093F30187
:1004900083E08093F20181E08093F101089587EF7A
:1004A00091E0089591E09093EF018093ED016093C6
:1004B000EC018093EB019BDF8091EB019ECF0895CF
:1004C00091E09093EE012093E6013093E701409391
:1004D000E8015093E901E6CF08951092EE014093B0
:1004E000EA01E0CF0895CF92DF92EF92FF920F934F
:1004F0001F93CF93DF938091F601813009F4BFC041
:1005000020F0823009F4CDC06BC2BFD4C7EFD1E078
:1005100009E2809F912D112492959F70905D9A839E
:100520001DEC819F912D1124969596959695905D41
:100530009B83805D8C8397D4809F012D112402952D
:100540000F7090E3900F9E83982F24E6029F9019DE
:100550001124919F912D1124969596959695905DD5
:100560009F83819F112D1124169516951695110FB5
:10057000912F990F990F190F811B805D88878ED459
:1005800021D59B01CB0168EE73E00E94D10A605D2A
:100590006C87E4E6F0E0BF010E94D10A605D6D87E0
:1005A000C901BF01FED70AE010E0B801FAD7605DCB
:1005B0006E87C901B801F5D7805D8F871ED46B01A6
:1005C0007C0100D5605D6A8B20E030E040E251E4C0
:1005D000C701B601B6D5F6D4CB01B801E2D7805D2C
:1005E0008B8B20E030E048EC52E4C701B601A9D57E
:1005F000E9D4CB01B801D5D7805D8C8B10D46B01C9
:100600007C01E0D4605D6F8B20E030E040E251E49B
:10061000C701B60196D5D6D4CB01B801C2D7805D4B
:10062000888F20E030E048EC52E4C701B60189D55C
:10063000C9D4CB01B801B5D7805D898F02D46B01D5
:100640007C01C0D4605D6C8F20E030E040E251E47A
:10065000C701B60176D5B6D4CB01B801A2D7805D6B
:100660008D8F20E030E048EC52E4C701B60169D537
:10067000A9D4CB01B80195D7805D8E8FB1C1A0916F
:10068000F00130E1A39FD0011124AA59BE4FE7EF3A
:10069000F1E027E032E08D918193E217F307D9F77B
:1006A0009FC18091F001823009F49AC030F4882310
:1006B00069F0813009F44FC093C1843009F41DC141
:1006C00008F4D3C0853009F462C18AC18091EF017A
:1006D000811106C092D39B01AC0165E083E0F0DE9E
:1006E000C7EFD1E08BE4888380E789838DE38A8339
:1006F000C090E601D090E701E090E801F090E901B8
:10070000C701B6015FD4605D6B8320E030E040E25A
:1007100051E4C701B60115D555D40AE010E0CB016C
:10072000B8013FD7805D8C8320E030E048EC52E494
:10073000C701B60106D546D4CB01B80132D7805DDA
:100740008D83EDEFF1E027E032E080E28193E21764
:10075000F307E1F745C18091EF01811106C05FD336
:100760009B01AC0165E083E0ABDEC7EFD1E08BE439
:10077000888389E689838DE38A83C090E601D090DF
:10078000E701E090E801F090E901C701B6011AD451
:10079000605D6B8320E030E040E251E4C701B601C8
:1007A000D0D410D40AE010E0CB01B801FAD6805DB5
:1007B0008C8320E030E048EC52E4C701B601C1D49C
:1007C00001D4CB01B801EDD6805D8D83EDEFF1E072
:1007D00027E032E080E28193E217F307E1F700C1FE
:1007E0008091EF01811106C02CD39B01AC0165E023
:1007F00083E066DEC7EFD1E08BE4888384E68983FB
:100800008DE38A83C090E601D090E701E090E80193
:10081000F090E901C701B601D5D3605D6B8320E09C
:1008200030E040E251E4C701B6018BD4CBD30AE0FB
:1008300010E0CB01B801B5D6805D8C8320E030E0BC
:1008400048EC52E4C701B6017CD4BCD3CB01B8015B
:10085000A8D6805D8D83EDEFF1E027E032E080E205
:100860008193E217F307E1F7BBC08091EF0181119B
:1008700005C0F9D2482F6CE08AE02FDEE7EFF1E007
:1008800084E7808398E29183828391E6938392E761
:10089000948397E6958395E69683878389E280879C
:1008A0009DE391879091EA01989F812D1124829573
:1008B0008F7020E3280F2287292F34E6839F201989
:1008C00011248DEC289F212D1124269526952695FF
:1008D000205D2387989F812D112486958695869586
:1008E000880F282F220F220F820F981B905D94876C
:1008F00080E285878687878773C08091EF018111A9
:1009000005C0B7D2482F6EE08CE0E7DDE7EFF1E0FD
:1009100084E7808398E2918393E7928398E69383B8
:1009200095E79483858324E626838FE6878387E78C
:1009300080878EE6818789E282879DE39387909105
:10094000EA01989F812D112482958F7030E3380F32
:100950003487392F829F301911248DEC389F212D37
:100960001124269526952695205D2587989F812D13
:100970001124869586958695880F282F220F220FA1
:10098000820F981B905D968780E2878729C08091AF
:10099000EF01811105C073D2482F6FE08FE09DDD1C
:1009A000E7EFF1E091E6908383E6818384E7828339
:1009B00089E6838386E7848325E6258380E2868330
:1009C00032E7378320872CE62187928799E7938740
:1009D00084879DE3958786878091EA01805D87877C
:1009E000DF91CF911F910F91FF90EF90DF90CF900B
:1009F00008951092EF0186E491E016DD1092F60161
:100A000080E01DDD70CD08951092EF01F3CC0895C4
:100A1000CF92DF92EF92FF9290E08A30910508F03A
:100A200033C1FC01EA5BFF4FCFC58091EF0181111B
:100A3000EBDF86E291E0F8DC81E08093F601109232
:100A4000F001FDDC50DD20C186E491E0EDDC109288
:100A5000F60180E0F4DC47DD17C1D6DF8091F001BC
:100A6000823001F128F4882349F0813089F02FC0C9
:100A7000843031F108F1853039F129C06091E60107
:100A80007091E7018091E8019091E901BFD11FC009
:100A90006091E6017091E7018091E8019091E90190
:100AA000C7D115C06091E6017091E7018091E8011E
:100AB0009091E901CFD10BC08091EA01D7D107C055
:100AC0008091EA01D9D103C08091EA01DBD186E2AD
:100AD00091E0AADC81E08093F601B1DC04DDD4C0B2
:100AE0008091F0018F5F863019F08093F00102C091
:100AF0001092F001F8DCC8C08091F001811104C0AF
:100B000085E08093F00103C081508093F001EBDC1D
:100B1000BBC08091EB018F5F8093EB019091EC0162
:100B2000981720F48091ED018093EB018091EB0107
:100B300064DCAAC08091EE01882359F18091EB0119
:100B400090E02091EC01821B91096EEF7FEF681B12
:100B5000790B072E000C880B990B67D29B01AC0117
:100B600060E070E080E291E44FD39B01AC016091C2
:100B7000E6017091E7018091E8019091E901BDD112
:100B80006093E6017093E7018093E8019093E90197
:100B90007BC06091EC0170E08091EB01681B7109F2
:100BA000072E000C880B990B40D29B01AC0160E032
:100BB00070E080E291E428D36B017C016091EA014E
:100BC00070E080E090E031D2A701960196D1FFD18C
:100BD0006093EA0159C08091EE01882359F1809118
:100BE000EB0190E02091EC01821B91096EEF7FEF09
:100BF000681B790B072E000C880B990B16D29B01F2
:100C0000AC0160E070E080E291E4FED29B01AC01B7
:100C10006091E6017091E7018091E8019091E9010E
:100C20006DD16093E6017093E7018093E8019093A2
:100C3000E9012AC06091EC0170E08091EB01681B32
:100C40007109072E000C880B990BEFD19B01AC01A9
:100C500060E070E080E291E4D7D26B017C016091AA
:100C6000EA0170E080E090E0E0D1A701960146D172
:100C7000AED16093EA0108C086E091E0D5DB82E066
:100C80008093F601DCDB2FDCFF90EF90DF90CF90BC
:100C900008950F931F93CF93DF93C1E0D0E0082F07
:100CA00010E001C021969E0121503109A801022EB9
:100CB00002C0559547950A94E2F740FF26C02330BD
:100CC0003105B9F038F42130310559F022303105C1
:100CD00061F01BC02430310581F02530310589F0E9
:100CE00014C08091F50194DEDDCF8091F20190DE99
:100CF000D9CF8091F1018CDED5CF8091F30188DED0
:100D0000D1CF8091F40184DECDCFC830D10554F22B
:100D1000DF91CF911F910F910895CF93DF93CDB7BE
:100D2000DEB72F970FB6F894DEBF0FBECDBF809110
:100D3000390290913A02A0913B02B0913C02898322
:100D40009A83AB83BC83CE01019663D460932A025D
:100D500070932B0280932C0290932D028091350288
:100D600090913602A0913702B09138028D839E8314
:100D7000AF83B887CE0105964CD46093260270935A
:100D8000270280932802909329028091310290914A
:100D90003202A0913302B091340289879A87AB87DF
:100DA000BC87CE01099635D460932202709323024A
:100DB0008093240290932502809130028D87CE018A
:100DC0000D961FD48093210280912F028E87CE0131
:100DD0000E9617D48093200280912E028F87CE0129
:100DE0000F960FD480931F022F960FB6F894DEBF94
:100DF0000FBECDBFDF91CF91089560912A0270910F
:100E00002B0280912C0290912D02089560932A026A
:100E100070932B0280932C0290932D020895609181
:100E2000260270912702809128029091290208954C
:100E300060932602709327028093280290932902E0
:100E40000895609122027091230280912402909172
:100E50002502089560932202709323028093240256
:100E60009093250208958091210208958093210294
:100E70000895809120020895809320020895809122
:100E80001F02089580931F02089560911B027091C4
:100E90001C0280911D0290911E020895609117021C
:100EA000709118028091190290911A0208951F9270
:100EB0000F920FB60F9211248F938CB180933D0245
:100EC0008F910F900FBE0F901F9018951BB888E957
:100ED0008AB986E8809395001092900080E489B9E1
:100EE00010923D02089580913D02882329F05D9B78
:100EF000FECF8CB910923D0208955058BB27AA2707
:100F00000ED0E5C0D6D030F0DBD020F031F49F3FDA
:100F100011F41EF4CBC00EF4E095E7FBC1C0E92F3D
:100F2000E7D080F3BA17620773078407950718F0B4
:100F300071F49EF5FFC00EF4E0950B2EBA2FA02D94
:100F40000B01B90190010C01CA01A0011124FF2776
:100F5000591B99F0593F50F4503E68F11A16F04071
:100F6000A22F232F342F4427585FF3CF4695379570
:100F70002795A795F0405395C9F77EF41F16BA0B35
:100F8000620B730B840BBAF09150A1F0FF0FBB1FE3
:100F9000661F771F881FC2F70EC0BA0F621F731F2C
:100FA000841F48F4879577956795B795F7959E3F89
:100FB00008F0B3CF9395880F08F09927EE0F979517
:100FC0008795089504D06894B111B5C0089598D05C
:100FD00088F09F5790F0B92F9927B751A0F0D1F022
:100FE000660F771F881F991F1AF0BA95C9F712C0AC
:100FF000B13081F09FD0B1E008959CC0672F782F69
:101000008827B85F39F0B93FCCF386957795679517
:10101000B395D9F73EF490958095709561957F4F83
:101020008F4F9F4F0895E89409C097FB3EF4909529
:101030008095709561957F4F8F4F9F4F9923A9F0B1
:10104000F92F96E9BB279395F69587957795679540
:10105000B795F111F8CFFAF4BB0F11F460FF1BC084
:101060006F5F7F4F8F4F9F4F16C0882311F096E917
:1010700011C0772321F09EE8872F762F05C06623C5
:1010800071F096E8862F70E060E02AF09A95660F7E
:10109000771F881FDAF7880F9695879597F9089537
:1010A00097F99F6780E870E060E008959FEF80EC1B
:1010B000089500240A9416161706180609060895BE
:1010C00000240A9412161306140605060895092E24
:1010D0000394000C11F4882352F0BB0F40F4BF2B93
:1010E00011F460FF04C06F5F7F4F8F4F9F4F0895D3
:1010F00057FD9058440F551F59F05F3F71F04795C9
:10110000880F97FB991F61F09F3F79F087950895AD
:10111000121613061406551FF2CF4695F1DF08C0CC
:10112000161617061806991FF1CF869571056105E9
:1011300008940895E894BB2766277727CB0197F991
:1011400008950BD0C4CFB5DF28F0BADF18F095238F
:1011500009F0A6CFABCF1124EECFCADFA0F3959F45
:10116000D1F3950F50E0551F629FF001729FBB278E
:10117000F00DB11D639FAA27F00DB11DAA1F649F3A
:101180006627B00DA11D661F829F2227B00DA11DED
:10119000621F739FB00DA11D621F839FA00D611D73
:1011A000221F749F3327A00D611D231F849F600D94
:1011B000211D822F762F6A2F11249F5750408AF0CD
:1011C000E1F088234AF0EE0FFF1FBB1F661F771F59
:1011D000881F91505040A9F79E3F510570F060CF95
:1011E000AACF5F3FECF3983EDCF386957795679541
:1011F000B795F795E7959F5FC1F7FE2B880F911D77
:101200009695879597F90895FA01EE0FFF1F30968E
:101210002105310599F16115710561F48038BFE34D
:101220009B0749F168949038810561F08038BFEFE1
:101230009B0741F0992342F5FF3FE1053105210568
:1012400011F1E8940894E795D901AA2329F4AB2F6A
:10125000BE2FF85FD0F310C0FF5F70F4A695E0F7E3
:10126000F73950F019F0FF3A38F49F779F930CD07C
:101270000F9007FC905808953EF018CF60E070E0A2
:1012800080E89FE308954FE79F775F934F933F93E5
:101290002F939ED02F913F914F915F9152DF05C0C8
:1012A00019F40EF0FDCE46CF01CF2ADFC8F39638F1
:1012B000C0F707F80F92E8942BE33AEA48EB5FE7B0
:1012C0004EDF0F920F920F924DB75EB70F92C0D0C4
:1012D000E0EAF0E016D04F915F91EF91FF91E59534
:1012E000EE1FFF1F49F0FE57E0684427EE0F441F32
:1012F000FA95E1F74195550B32D00F9007FE26C0C5
:101300000895DF93CF931F930F93FF92EF92DF9295
:101310007B018C01689405C0DA2EEF011EDFFE010F
:10132000E894A5912591359145915591AEF3EF0142
:10133000F6DDFE019701A801DA9479F7DF90EF90CE
:10134000FF900F911F91CF91DF9108959B01AC0108
:1013500060E070E080E89FE3AEC0A2CE14C1D0DEB2
:10136000E8F39923D9F3940F511DBBF391505040EA
:1013700094F059F0882332F0660F771F881F915040
:101380005040C1F79E3F510544F7880F911D969537
:10139000879597F908955F3FACF0983E9CF0BB2786
:1013A000869577956795B79508F4B1609395C1F7E1
:1013B000BB0F58F711F460FFE8CF6F5F7F4F8F4F7F
:1013C0009F4FE3CFB8CE0EF0DEC070CE689468CEEB
:1013D00097DEC8F39923D1F3C6F3DF93CF931F931E
:1013E0000F93FF92C92FDD2788232AF02197660FDC
:1013F000771F881FDAF720E030E040E85FEB9FE3DB
:10140000883920F0803E30F021968F7777DDE8EC48
:10141000F0E003C073DDE5EFF0E073DF8B01BE01A8
:10142000EC01FB2E6F5771097595771F880B990B8F
:10143000FCDD28E132E741E35FE38FDEAF2D980169
:10144000AE01FF900F911F91CF91DF9168DD3FCEEC
:10145000FA01DC01AA0FBB1F9B01AC01BF5728F4A6
:1014600022273327442750781FC0B75188F4AB2F69
:101470000024469537952795011CA395D2F30020AB
:1014800069F0220F331F441FB395DAF30DD035CD29
:1014900061307105A0E88A07B94630F49B01AC01C0
:1014A0006627772788279078309621F0208331832C
:1014B0004283538308950CD00ACE02DE40F0F9DD5A
:1014C00030F021F45F3F19F0EBCD511134CEEECD69
:1014D0000FDE98F39923C9F35523B1F3951B550BF0
:1014E000BB27AA2762177307840738F09F5F5F4FF7
:1014F000220F331F441FAA1FA9F333D00E2E3AF038
:10150000E0E830D091505040E695001CCAF729D051
:10151000FE2F27D0660F771F881FBB1F26173707A0
:101520004807AB07B0E809F0BB0B802DBF01FF27D0
:1015300093585F4F2AF09E3F510568F0B1CDFBCD27
:101540005F3FECF3983EDCF3869577956795B7950A
:10155000F7959F5FC9F7880F911D9695879597F925
:101560000895E1E0660F771F881FBB1F621773079E
:101570008407BA0720F0621B730B840BBA0BEE1FB3
:1015800088F7E09508959F3F31F0915020F48795BA
:1015900077956795B795880F911D9695879597F9DB
:1015A000089597FB072E16F4009406D077FD08D017
:1015B00014D007FC05D03EF4909581959F4F089577
:1015C000709561957F4F0895EE0FFF1F0024001C5A
:1015D0000BBE0790F691E02D0994AA1BBB1B51E1AD
:1015E00007C0AA1FBB1FA617B70710F0A61BB70B93
:1015F000881F991F5A95A9F780959095BC01CD0138
:101600000895E199FECF9FBB8EBBE09A99278DB3D9
:101610000895A6E1B0E044E050E002C0DC01CB0157
:10162000FC01E199FECF06C0FFBBEEBBE09A31960C
:101630000DB20D9241505040B8F70895F894FFCF85
:10164000FFFFFFFFFF002A2A2A2A2A2A2A2A2A2AFB
:101650002A2A2A2A2A534D454E553E202B2D205307
:10166000454C2042414B2D2A2A2A2A2A2A2A2A2A54
:101670002A2A2A2A2A534241434B20202020202074
:1016800053454C454354743D2A2A2A2F2A2A2A209E
:10169000403D2A2A2A2A503D2A2A2A493D2A2A2A16
:1016A000443D2A2A2A204B70202020202020202060
:1016B000202020312F364B69202020202020202080
:1016C000202020322F364B64202020202020202074
:1016D000202020332F367428746172726765742954
:1016E000202020342F36742873687574646F776EE9
:1016F000292020352F367377697463682072656CF2
:06170000617920362F364E
:00000001FF
